{
  "_format": "hh3-artifact-1",
  "contractName": "Report",
  "sourceName": "contracts/Report.sol",
  "abi": [
    {
      "inputs": [],
      "stateMutability": "nonpayable",
      "type": "constructor"
    },
    {
      "inputs": [],
      "name": "getHospital",
      "outputs": [
        {
          "internalType": "string",
          "name": "",
          "type": "string"
        }
      ],
      "stateMutability": "view",
      "type": "function"
    },
    {
      "inputs": [],
      "name": "getPatient",
      "outputs": [
        {
          "internalType": "string",
          "name": "",
          "type": "string"
        }
      ],
      "stateMutability": "view",
      "type": "function"
    },
    {
      "inputs": [],
      "name": "getPrescription",
      "outputs": [
        {
          "internalType": "string",
          "name": "",
          "type": "string"
        }
      ],
      "stateMutability": "view",
      "type": "function"
    },
    {
      "inputs": [],
      "name": "hospital_details",
      "outputs": [
        {
          "internalType": "string",
          "name": "",
          "type": "string"
        }
      ],
      "stateMutability": "view",
      "type": "function"
    },
    {
      "inputs": [],
      "name": "patient_details",
      "outputs": [
        {
          "internalType": "string",
          "name": "",
          "type": "string"
        }
      ],
      "stateMutability": "view",
      "type": "function"
    },
    {
      "inputs": [],
      "name": "prescription",
      "outputs": [
        {
          "internalType": "string",
          "name": "",
          "type": "string"
        }
      ],
      "stateMutability": "view",
      "type": "function"
    },
    {
      "inputs": [
        {
          "internalType": "string",
          "name": "hd",
          "type": "string"
        }
      ],
      "name": "setHospital",
      "outputs": [],
      "stateMutability": "nonpayable",
      "type": "function"
    },
    {
      "inputs": [
        {
          "internalType": "string",
          "name": "pd",
          "type": "string"
        }
      ],
      "name": "setPatient",
      "outputs": [],
      "stateMutability": "nonpayable",
      "type": "function"
    },
    {
      "inputs": [
        {
          "internalType": "string",
          "name": "p",
          "type": "string"
        }
      ],
      "name": "setPrescription",
      "outputs": [],
      "stateMutability": "nonpayable",
      "type": "function"
    }
  ],
  "bytecode": "0x608060405234801561000f575f5ffd5b5060405180602001604052805f8152505f908161002c91906102ab565b5060405180602001604052805f8152506002908161004a91906102ab565b5060405180602001604052805f8152506001908161006891906102ab565b5061037a565b5f81519050919050565b7f4e487b71000000000000000000000000000000000000000000000000000000005f52604160045260245ffd5b7f4e487b71000000000000000000000000000000000000000000000000000000005f52602260045260245ffd5b5f60028204905060018216806100e957607f821691505b6020821081036100fc576100fb6100a5565b5b50919050565b5f819050815f5260205f209050919050565b5f6020601f8301049050919050565b5f82821b905092915050565b5f6008830261015e7fffffffffffffffffffffffffffffffffffffffffffffffffffffffffffffffff82610123565b6101688683610123565b95508019841693508086168417925050509392505050565b5f819050919050565b5f819050919050565b5f6101ac6101a76101a284610180565b610189565b610180565b9050919050565b5f819050919050565b6101c583610192565b6101d96101d1826101b3565b84845461012f565b825550505050565b5f5f905090565b6101f06101e1565b6101fb8184846101bc565b505050565b5b8181101561021e576102135f826101e8565b600181019050610201565b5050565b601f8211156102635761023481610102565b61023d84610114565b8101602085101561024c578190505b61026061025885610114565b830182610200565b50505b505050565b5f82821c905092915050565b5f6102835f1984600802610268565b1980831691505092915050565b5f61029b8383610274565b9150826002028217905092915050565b6102b48261006e565b67ffffffffffffffff8111156102cd576102cc610078565b5b6102d782546100d2565b6102e2828285610222565b5f60209050601f831160018114610313575f8415610301578287015190505b61030b8582610290565b865550610372565b601f19841661032186610102565b5f5b8281101561034857848901518255600182019150602085019450602081019050610323565b868310156103655784890151610361601f891682610274565b8355505b6001600288020188555050505b505050505050565b610a46806103875f395ff3fe608060405234801561000f575f5ffd5b5060043610610091575f3560e01c806351b5545b1161006457806351b5545b1461010b5780637b0f9a361461012757806395b679911461014557806397be188214610161578063af151ccc1461017f57610091565b806318769d46146100955780633680f6ee146100b3578063389b4fe3146100cf5780634c3b9086146100ed575b5f5ffd5b61009d61019d565b6040516100aa9190610597565b60405180910390f35b6100cd60048036038101906100c891906106f4565b61022c565b005b6100d761023f565b6040516100e49190610597565b60405180910390f35b6100f56102ca565b6040516101029190610597565b60405180910390f35b610125600480360381019061012091906106f4565b61035a565b005b61012f61036d565b60405161013c9190610597565b60405180910390f35b61015f600480360381019061015a91906106f4565b6103fd565b005b61016961040f565b6040516101769190610597565b60405180910390f35b61018761049b565b6040516101949190610597565b60405180910390f35b60605f80546101ab90610768565b80601f01602080910402602001604051908101604052809291908181526020018280546101d790610768565b80156102225780601f106101f957610100808354040283529160200191610222565b820191905f5260205f20905b81548152906001019060200180831161020557829003601f168201915b5050505050905090565b806002908161023b9190610941565b5050565b5f805461024b90610768565b80601f016020809104026020016040519081016040528092919081815260200182805461027790610768565b80156102c25780601f10610299576101008083540402835291602001916102c2565b820191905f5260205f20905b8154815290600101906020018083116102a557829003601f168201915b505050505081565b6060600280546102d990610768565b80601f016020809104026020016040519081016040528092919081815260200182805461030590610768565b80156103505780601f1061032757610100808354040283529160200191610350565b820191905f5260205f20905b81548152906001019060200180831161033357829003601f168201915b5050505050905090565b80600190816103699190610941565b5050565b60606001805461037c90610768565b80601f01602080910402602001604051908101604052809291908181526020018280546103a890610768565b80156103f35780601f106103ca576101008083540402835291602001916103f3565b820191905f5260205f20905b8154815290600101906020018083116103d657829003601f168201915b5050505050905090565b805f908161040b9190610941565b5050565b6001805461041c90610768565b80601f016020809104026020016040519081016040528092919081815260200182805461044890610768565b80156104935780601f1061046a57610100808354040283529160200191610493565b820191905f5260205f20905b81548152906001019060200180831161047657829003601f168201915b505050505081565b600280546104a890610768565b80601f01602080910402602001604051908101604052809291908181526020018280546104d490610768565b801561051f5780601f106104f65761010080835404028352916020019161051f565b820191905f5260205f20905b81548152906001019060200180831161050257829003601f168201915b505050505081565b5f81519050919050565b5f82825260208201905092915050565b8281835e5f83830152505050565b5f601f19601f8301169050919050565b5f61056982610527565b6105738185610531565b9350610583818560208601610541565b61058c8161054f565b840191505092915050565b5f6020820190508181035f8301526105af818461055f565b905092915050565b5f604051905090565b5f5ffd5b5f5ffd5b5f5ffd5b5f5ffd5b7f4e487b71000000000000000000000000000000000000000000000000000000005f52604160045260245ffd5b6106068261054f565b810181811067ffffffffffffffff82111715610625576106246105d0565b5b80604052505050565b5f6106376105b7565b905061064382826105fd565b919050565b5f67ffffffffffffffff821115610662576106616105d0565b5b61066b8261054f565b9050602081019050919050565b828183375f83830152505050565b5f61069861069384610648565b61062e565b9050828152602081018484840111156106b4576106b36105cc565b5b6106bf848285610678565b509392505050565b5f82601f8301126106db576106da6105c8565b5b81356106eb848260208601610686565b91505092915050565b5f60208284031215610709576107086105c0565b5b5f82013567ffffffffffffffff811115610726576107256105c4565b5b610732848285016106c7565b91505092915050565b7f4e487b71000000000000000000000000000000000000000000000000000000005f52602260045260245ffd5b5f600282049050600182168061077f57607f821691505b6020821081036107925761079161073b565b5b50919050565b5f819050815f5260205f209050919050565b5f6020601f8301049050919050565b5f82821b905092915050565b5f600883026107f47fffffffffffffffffffffffffffffffffffffffffffffffffffffffffffffffff826107b9565b6107fe86836107b9565b95508019841693508086168417925050509392505050565b5f819050919050565b5f819050919050565b5f61084261083d61083884610816565b61081f565b610816565b9050919050565b5f819050919050565b61085b83610828565b61086f61086782610849565b8484546107c5565b825550505050565b5f5f905090565b610886610877565b610891818484610852565b505050565b5b818110156108b4576108a95f8261087e565b600181019050610897565b5050565b601f8211156108f9576108ca81610798565b6108d3846107aa565b810160208510156108e2578190505b6108f66108ee856107aa565b830182610896565b50505b505050565b5f82821c905092915050565b5f6109195f19846008026108fe565b1980831691505092915050565b5f610931838361090a565b9150826002028217905092915050565b61094a82610527565b67ffffffffffffffff811115610963576109626105d0565b5b61096d8254610768565b6109788282856108b8565b5f60209050601f8311600181146109a9575f8415610997578287015190505b6109a18582610926565b865550610a08565b601f1984166109b786610798565b5f5b828110156109de578489015182556001820191506020850194506020810190506109b9565b868310156109fb57848901516109f7601f89168261090a565b8355505b6001600288020188555050505b50505050505056fea2646970667358221220995b95c6587426851c908fbeeb52fa814fbcd4dbcc7672fd6968569d4913c69c64736f6c634300081c0033",
  "linkReferences": {},
  "deployedLinkReferences": {},
  "immutableReferences": {},
  "inputSourceName": "project/contracts/Report.sol",
  "buildInfoId": "solc-0_8_28-7f4333d99a2825e1bc6a1d8b831682cda93c4b83"
}