{
  "contractName": "Report",
  "abi": [
    {
      "inputs": [],
      "stateMutability": "nonpayable",
      "type": "constructor"
    },
    {
      "inputs": [],
      "name": "hospital_details",
      "outputs": [
        {
          "internalType": "string",
          "name": "",
          "type": "string"
        }
      ],
      "stateMutability": "view",
      "type": "function",
      "constant": true
    },
    {
      "inputs": [],
      "name": "patient_details",
      "outputs": [
        {
          "internalType": "string",
          "name": "",
          "type": "string"
        }
      ],
      "stateMutability": "view",
      "type": "function",
      "constant": true
    },
    {
      "inputs": [],
      "name": "prescription",
      "outputs": [
        {
          "internalType": "string",
          "name": "",
          "type": "string"
        }
      ],
      "stateMutability": "view",
      "type": "function",
      "constant": true
    },
    {
      "inputs": [
        {
          "internalType": "string",
          "name": "hd",
          "type": "string"
        }
      ],
      "name": "setHospital",
      "outputs": [],
      "stateMutability": "nonpayable",
      "type": "function"
    },
    {
      "inputs": [],
      "name": "getHospital",
      "outputs": [
        {
          "internalType": "string",
          "name": "",
          "type": "string"
        }
      ],
      "stateMutability": "view",
      "type": "function",
      "constant": true
    },
    {
      "inputs": [
        {
          "internalType": "string",
          "name": "pd",
          "type": "string"
        }
      ],
      "name": "setPatient",
      "outputs": [],
      "stateMutability": "nonpayable",
      "type": "function"
    },
    {
      "inputs": [],
      "name": "getPatient",
      "outputs": [
        {
          "internalType": "string",
          "name": "",
          "type": "string"
        }
      ],
      "stateMutability": "view",
      "type": "function",
      "constant": true
    },
    {
      "inputs": [
        {
          "internalType": "string",
          "name": "p",
          "type": "string"
        }
      ],
      "name": "setPrescription",
      "outputs": [],
      "stateMutability": "nonpayable",
      "type": "function"
    },
    {
      "inputs": [],
      "name": "getPrescription",
      "outputs": [
        {
          "internalType": "string",
          "name": "",
          "type": "string"
        }
      ],
      "stateMutability": "view",
      "type": "function",
      "constant": true
    }
  ],
  "bytecode": "0x608060405234801561000f575f5ffd5b5060408051602081019091525f8082529061002a9082610100565b5060408051602081019091525f81526002906100469082610100565b5060408051602081019091525f81526001906100629082610100565b506101ba565b634e487b7160e01b5f52604160045260245ffd5b600181811c9082168061009057607f821691505b6020821081036100ae57634e487b7160e01b5f52602260045260245ffd5b50919050565b601f8211156100fb57805f5260205f20601f840160051c810160208510156100d95750805b601f840160051c820191505b818110156100f8575f81556001016100e5565b50505b505050565b81516001600160401b0381111561011957610119610068565b61012d81610127845461007c565b846100b4565b6020601f82116001811461015f575f83156101485750848201515b5f19600385901b1c1916600184901b1784556100f8565b5f84815260208120601f198516915b8281101561018e578785015182556020948501946001909201910161016e565b50848210156101ab57868401515f19600387901b60f8161c191681555b50505050600190811b01905550565b6104ff806101c75f395ff3fe608060405234801561000f575f5ffd5b5060043610610090575f3560e01c806351b5545b1161006357806351b5545b146100d75780637b0f9a36146100ea57806395b67991146100f257806397be188214610105578063af151ccc1461010d575f5ffd5b806318769d46146100945780633680f6ee146100b2578063389b4fe3146100c75780634c3b9086146100cf575b5f5ffd5b61009c610115565b6040516100a9919061028e565b60405180910390f35b6100c56100c03660046102d7565b6101a4565b005b61009c6101b4565b61009c61023f565b6100c56100e53660046102d7565b61024e565b61009c61025a565b6100c56101003660046102d7565b610269565b61009c610274565b61009c610281565b60605f80546101239061038a565b80601f016020809104026020016040519081016040528092919081815260200182805461014f9061038a565b801561019a5780601f106101715761010080835404028352916020019161019a565b820191905f5260205f20905b81548152906001019060200180831161017d57829003601f168201915b5050505050905090565b60026101b0828261040e565b5050565b5f80546101c09061038a565b80601f01602080910402602001604051908101604052809291908181526020018280546101ec9061038a565b80156102375780601f1061020e57610100808354040283529160200191610237565b820191905f5260205f20905b81548152906001019060200180831161021a57829003601f168201915b505050505081565b6060600280546101239061038a565b60016101b0828261040e565b6060600180546101239061038a565b5f6101b0828261040e565b600180546101c09061038a565b600280546101c09061038a565b602081525f82518060208401528060208501604085015e5f604082850101526040601f19601f83011684010191505092915050565b634e487b7160e01b5f52604160045260245ffd5b5f602082840312156102e7575f5ffd5b813567ffffffffffffffff8111156102fd575f5ffd5b8201601f8101841361030d575f5ffd5b803567ffffffffffffffff811115610327576103276102c3565b604051601f8201601f19908116603f0116810167ffffffffffffffff81118282101715610356576103566102c3565b60405281815282820160200186101561036d575f5ffd5b816020840160208301375f91810160200191909152949350505050565b600181811c9082168061039e57607f821691505b6020821081036103bc57634e487b7160e01b5f52602260045260245ffd5b50919050565b601f82111561040957805f5260205f20601f840160051c810160208510156103e75750805b601f840160051c820191505b81811015610406575f81556001016103f3565b50505b505050565b815167ffffffffffffffff811115610428576104286102c3565b61043c81610436845461038a565b846103c2565b6020601f82116001811461046e575f83156104575750848201515b5f19600385901b1c1916600184901b178455610406565b5f84815260208120601f198516915b8281101561049d578785015182556020948501946001909201910161047d565b50848210156104ba57868401515f19600387901b60f8161c191681555b50505050600190811b0190555056fea2646970667358221220fd46fcd936ecabac25b82ab65c1efb3377eb8f17395748184b86719f0c1a09d964736f6c634300081c0033",
  "immutableReferences": {},
  "source": "// SPDX-License-Identifier: MIT\r\npragma solidity >= 0.4.0 <= 0.9.0;\r\n\r\ncontract Report {\r\n    string public hospital_details;\r\n    string public patient_details;\r\n    string public prescription;\r\n       \r\n    //call this function to save hospital data to Blockchain\r\n    function setHospital(string memory hd) public {\r\n       hospital_details = hd;\t\r\n    }\r\n   //get hospital details\r\n    function getHospital() public view returns (string memory) {\r\n        return hospital_details;\r\n    }\r\n\r\n    //call this function to save patient data to Blockchain\r\n    function setPatient(string memory pd) public {\r\n       patient_details = pd;\t\r\n    }\r\n   //get hospital details\r\n    function getPatient() public view returns (string memory) {\r\n        return patient_details;\r\n    }\r\n\r\n    //call this function to save prescription data to Blockchain\r\n    function setPrescription(string memory p) public {\r\n       prescription = p;\t\r\n    }\r\n   //get hospital details\r\n    function getPrescription() public view returns (string memory) {\r\n        return prescription;\r\n    }\r\n\r\n    constructor() {\r\n        hospital_details=\"\";\r\n\tprescription = \"\";\r\n\tpatient_details=\"\";\r\n    }\r\n}",
  "sourcePath": "C:\\Users\\laksh\\Downloads\\mid review\\code folder\\Blockchain based Smart Healthcare System\\Extension\\contracts\\Report.sol",
  "compiler": {
    "name": "solc",
    "version": "0.8.28+commit.7893614a.Emscripten.clang"
  },
  "schemaVersion": "3.4.16",
  "updatedAt": "2025-11-14T11:38:42.641Z",
  "networkType": "ethereum",
  "devdoc": {
    "kind": "dev",
    "methods": {},
    "version": 1
  },
  "userdoc": {
    "kind": "user",
    "methods": {},
    "version": 1
  }
}